:04000000FEEF17F008
:102A3C00936A816A81EC15F0D5EC15F0120031C067
:102A4C002EF02F6AC40E306E46EC16F0120031C018
:102A5C002EF02F6AC70E306E46EC16F0120031C005
:102A6C002EF02F6AC00E306E46EC16F012001EECE3
:102A7C0015F0EB0E2E6E2F0E2F6E800E306E46EC78
:102A8C0016F0C6EC16F02D6A320E2C6EF3EC15F027
:082A9C003FEF15F0FEEF17F00B
:102AA5004F4E00474E00473100473200473300473D
:102AB50034004735004752005F43004F4646004CFF
:102AC5005F5300525F5300485F4C00A50EF66E2A17
:102AD5000EF76E000EF86E00EE01F010EE2BF00909
:102AE50000F5CFEEFFE550E150FAE14C6A4B6A4A3A
:102AF5006A496A000EF86E00013DEF15F0956A947B
:102B050050F80B946E8290000E2C6E020E9BEC1505
:102B1500F0000E2C6E380E9BEC15F0000E2C6E0C92
:102B25000E9BEC15F0000E2C6E010E9BEC15F012B1
:102B3500002D6E2CB0A1EF15F0A4EF15F08282A543
:102B4500EF15F082922DC083FF82848294958E8248
:102B55008082928284829483BEB3EF15F0B5EF151F
:102B6500F0ACEF15F08290959E120061502E6E2FFD
:102B75006AD8902E362F36D8902E362F36D8902EEE
:102B8500362F366238E842070B070B306E316A2E56
:102B9500503010326E2F503110336E32C02CF0335E
:102BA500C02DF01200939493861F0E6F166F8E80C2
:102BB5000E6E18D8A4E1EF15F0E3EF15F0DAEF1576
:102BC500F0776AE10E706E1B0E716E030E726E0D5C
:102BD50001D46B1F0E6F166F50606A608A608C128D
:102BE50000316A000E306E0BEF16F0010E2F6EF4F9
:102BF5000E2E6E2E06D8A02F062E2806E12F28D8D9
:102C0500A407EF16F009EF16F0FCEF15F0304A3186
:102C15002A2C50305C2D503158D8A014EF16F016E0
:102C2500EF16F0F8EF15F012001BEF16F02C2A2D19
:102C35002A2D50D96EDA6A2C50E16EE26ADE50E632
:102C450018D8A428EF16F02AEF16F035EF16F02C59
:102C550050D96EDA6ADF50D8A433EF16F035EF1687
:102C6500F019EF16F02C50D96EDA6ADF502E6E2D62
:102C750050D96EDA6ADF502F6E2F502E5C2C6E2DD8
:102C85006AD8A02D061200000E2C6E30509BEC1554
:102C9500F063EF16F0010E2C6E2EC0F6FF2FC0F775
:102CA500FFF86A050EF76403D00800F55005D0F665
:102CB500CFE9FFF7CFEAFFEF509BEC15F02E4A2F37
:102CC5002A2EC0F6FF2FC0F7FFF86A050EF764033A
:102CD500D00800F55005D0F6CFE9FFF7CFEAFFEFB2
:102CE500500009D8A479EF16F07BEF16F04DEF16DA
:102CF500F0120060AE81EF16F083EF16F0C1EF160B
:102D0500F0B8EC15F03450D96EDA6A2CC0DEFF2D20
:102D1500C0DDFF3650D96EDA6A65CFDFFF660E3A41
:102D25006E0F0E3B6E3D6A000E3C6EA8EF16F03C32
:102D3500503A24D96E3D503B20DA6E35503C24E1A3
:102D45006EE26ADFCFE7FF3C4A3D2A3650D96EDA9C
:102D55006ADF50376E386A37503C5C3D50800A391F
:102D65006E3850800A3958D8A0BBEF16F0BDEF1663
:102D7500F09AEF16F0609EA490C5EF16F03650D984
:102D85006EDA6ADF6A1200486A460E346E3E0E3508
:102D95006E480E366E7CEC16F0100E46184710D8AD
:102DA500A4D7EF16F0D9EF16F0E1EF16F03E0E318D
:102DB5006E48C032F035EC15F015EF17F0200E46D1
:102DC500184710D8A4E9EF16F0EBEF16F0F3EF165D
:102DD500F03E0E316E48C032F025EC15F015EF17B8
:102DE500F0300E46184710D8A4FBEF16F0FDEF168D
:102DF500F005EF17F03E0E316E48C032F02DEC15A0
:102E0500F015EF17F0500E46184710D8A40DEF1720
:102E1500F00FEF17F015EF17F03E0E316E48C03288
:102E2500F016EC17F0120031C02EF02F6ACC0E30E0
:102E35006E46EC16F031C02CF01C0E2D6E17EC16FC
:102E4500F02C502D10D8A42AEF17F02CEF17F046D0
:102E5500EF17F04950336E4A50346E494A4A2A34C6
:102E65005009E10B0E335CD8A03BEF17F03DEF178F
:102E7500F0F4EF17F0819E819C819281904A6A005F
:102E85000E496EF4EF17F031C02CF0200E2D6E17A1
:102E9500EC16F02C502D10D8A453EF17F055EF1762
:102EA500F07AEF17F04950336E4A50346E494A4A6A
:102EB5002A345009E10B0E335CD8A064EF17F06695
:102EC500EF17F0F4EF17F081A06BEF17F06EEF1727
:102ED500F081806FEF17F0819081A274EF17F07782
:102EE500EF17F0818278EF17F0819241EF17F031FB
:102EF500C02CF0240E2D6E17EC16F02C502D10D88A
:102F0500A487EF17F089EF17F0AEEF17F0495033AC
:102F15006E4A50346E494A4A2A345009E10B0E3341
:102F25005CD8A098EF17F09AEF17F0F4EF17F0813F
:102F3500AC9FEF17F0A2EF17F0818CA3EF17F0818C
:102F45009C81AEA8EF17F0ABEF17F0818EACEF17B1
:102F5500F0819E41EF17F031C02CF0280E2D6E1731
:102F6500EC16F02C502D10D8A4BBEF17F0BDEF17C1
:102F7500F0F4EF17F04950336E4A50346E494A4A1F
:102F85002A345009E10B0E335CD8A0CCEF17F0CEF4
:102F9500EF17F0F4EF17F081A0D3EF17F0D6EF1786
:102FA500F08180D7EF17F0819081A2DCEF17F0DF79
:102FB500EF17F08182E0EF17F0819281ACE5EF1712
:102FC500F0E8EF17F0818CE9EF17F0819C81AEEE08
:102FD500EF17F0F1EF17F0818EF2EF17F0819E41B8
:102FE500EF17F01200005350442047452052504D32
:0B2FF5002020494E44000068EF15F05A
:020000040020DA
:08000000FFFFFFFFFFFFFFFF00
:020000040030CA
:0E000000FF071F1FFF8285FF0FC00FE00F409C
:00000001FF
