:04000000FEEF17F008
:1006000000001950800B266E195019242D6E18AE5B
:100610000CEF03F00EEF03F00FEF03F02D802D50E1
:10062000D8B415EF03F017EF03F02BEF03F02D28EC
:10063000D8A41DEF03F01FEF03F027EF03F0000E27
:10064000166E000E176E000E186E000E196E188EC4
:10065000196A33EF03F0000E166E000E176E000ECF
:10066000186E000E196E1D50800B261A1D501D2489
:100670002E6E1CAE3EEF03F040EF03F041EF03F0AF
:100680002E802E50D8B447EF03F049EF03F05DEF12
:1006900003F02E28D8A44FEF03F051EF03F059EFE9
:1006A00003F0000E1A6E000E1B6E000E1C6E000E84
:1006B0001D6E1C8E1D6A65EF03F0000E1A6E000E93
:1006C0001B6E000E1C6E000E1D6E1A501B101C10AF
:1006D0001D10D8A46EEF03F070EF03F088EF03F065
:1006E000000E166E000E176E000E186E000E196EBC
:1006F000800E18127F0E19122650191216C016F00D
:1007000017C017F018C018F019C019F0C7EF04F09F
:100710002D50D8A48EEF03F090EF03F09AEF03F082
:10072000000E166E000E176E000E186E000E196E7B
:10073000C7EF04F02E502DC01EF01F6A1E5E000E83
:100740001F5A7F0E1E24276E000E1F20286E16C013
:1007500022F017C023F018C024F019C025F0000EB5
:10076000166E000E176E000E186E000E196E000E3B
:10077000296E000E2A6E000E2B6E000E2C6E2E6A55
:10078000FAEF03F02E50D8B4C8EF03F0CAEF03F02D
:10079000E1EF03F0D8902236233624362536D89060
:1007A00016361736183619362CAED9EF03F0DBEFB4
:1007B00003F0DCEF03F01680D89029362A362B366A
:1007C0002C361A50225C1B5023581C5024581D50A4
:1007D0002558D8A0EEEF03F0F0EF03F0F9EF03F0A7
:1007E0002C8C1A50225E1B50235A1C50245A1D5028
:1007F000255A2E2A190E2E6400EF04F002EF04F0A1
:10080000C2EF03F02250231024102510D8B40BEFB0
:1008100004F00DEF04F025EF04F0298025EF04F03B
:10082000D89016361736183619362CAE1AEF04F053
:100830001CEF04F01DEF04F01680D89029362A36FC
:100840002B362C362706D8A0280618AE2AEF04F03F
:100850002CEF04F010EF04F02E6A2CAE32EF04F00F
:1008600034EF04F058EF04F0FF0E29141E6EFF0E53
:100870002A141F6EFF0E2B14206E7F0E2C14216E77
:100880001E501F1020102110D8B449EF04F04BEF78
:1008900004F04FEF04F0010E2E6E58EF04F016A096
:1008A00054EF04F056EF04F058EF04F04BEF04F06F
:1008B0002E50D8B45EEF04F060EF04F084EF04F043
:1008C000010E1626000E17221822192219A06BEF0E
:1008D00004F06DEF04F084EF04F016C01EF017C0B2
:1008E0001FF018C020F019C021F02134213220322D
:1008F0001F321E321EC016F01FC017F020C018F0A5
:1009000021C019F0274A282A28BE8FEF04F028506A
:1009100008E12728D8A08FEF04F091EF04F09CEFB6
:1009200004F0000E286E2768000E166E000E176E7B
:10093000000E186E000E196E28BEA9EF04F02850A4
:1009400006E12704D8B0A7EF04F0A9EF04F0B5EF53
:1009500004F0286A000E276E000E166E000E176E49
:10096000000E186E000E196E266A27C02DF02DA0FD
:10097000BCEF04F0BEEF04F0C1EF04F0188EC2EF3C
:1009800004F0189ED8902D30196E7CEF03F0120001
:10099000106E1050D8B4CFEF04F0D1EF04F0F3EFA5
:1009A00004F00BBED8EF04F0D6EF04F0F3EF04F040
:1009B00008C00CF009C00DF00AC00EF00BC00FF01B
:1009C0000C1E0D1E0E1E0F1E0C2A000E0D220E22D6
:1009D0000F220CC012F00DC013F00EC014F00FC0A7
:1009E00015F0FBEF04F008C012F009C013F00AC0C4
:1009F00014F00BC015F0085009100A100B10D8A401
:100A000004EF05F006EF05F010EF05F0000E086E9C
:100A1000000E096E000E0A6E000E0B6EA1EF05F0BF
:100A2000960E116E1AEF05F0112AD8901532143275
:100A300013321232000E12140C6E000E13140D6ECF
:100A4000000E14140E6EFE0E15140F6E0C500D10C9
:100A50000E100F10D8A42FEF05F031EF05F014EFB2
:100A600005F03FEF05F0112A010E1226000E1322A9
:100A700014221522D8901532143213321232000E7D
:100A800012140C6E000E13140D6E000E14140E6E64
:100A9000FF0E15140F6E0C500D100E100F10D8A471
:100AA00054EF05F056EF05F033EF05F05EEF05F07B
:100AB0001106D890123613361436153614BE63EF6D
:100AC00005F065EF05F06DEF05F0020E11606BEFBC
:100AD00005F06DEF05F058EF05F011B072EF05F07D
:100AE00074EF05F075EF05F0149ED890113211C027
:100AF0000CF00D6A0E6A0F6A0CC00FF00E6A0D6AD8
:100B00000C6A0C5012120D5013120E5014120F508A
:100B100015121050D8B48FEF05F091EF05F099EF52
:100B200005F00BBE98EF05F096EF05F099EF05F094
:100B3000158E12C008F013C009F014C00AF015C0D9
:100B40000BF01200AE0E1A6E470E1B6E250E1C6EB9
:100B5000410E1D6E040E7BEC08F001C008F002C0CF
:100B600009F00A6A0B6A000EC8EC04F008C016F01F
:100B700009C017F00AC018F00BC019F001EC03F01F
:100B800016C02FF017C030F018C031F019C032F085
:100B900025EC06F02FC050F030C051F0046A0A0E68
:100BA000036E50C001F051C002F08CEC07F001C0A0
:100BB00008F002C009F00B6A0A0E0A6EFCEC07F09E
:100BC00008503C0FD96EDA6ADF504C6E50C008F006
:100BD00051C009F00B6A0A0E0A6EFCEC07F00850CF
:100BE0003C0FD96EDA6ADF504D6E4A0E016E16EC7C
:100BF00007F0046A0A0E036E50C001F051C002F003
:100C00008CEC07F001C008F002C009F00B6A0A0E74
:100C10000A6EFCEC07F00850300F396E50C008F037
:100C200051C009F00B6A0A0E0A6EFCEC07F008507E
:100C3000300F3A6E3B6A066A100E056E390E076E6B
:100C4000030E086EC5EC07F0120031343234386EF2
:100C50003850D8A42EEF06F030EF06F03AEF06F049
:100C6000000E2F6E000E306E000E316E000E326ED2
:100C7000A7EF06F02FC033F030C034F031C035F0AC
:100C800032C036F0200E4AEF06F0D89036323532B8
:100C900034323332E82E45EF06F03350376E318E62
:100CA000FF0E2F16FF0E3016FF0E3116000E3216F5
:100CB000960E385E38BE61EF06F05FEF06F077EF14
:100CC00006F03850800A970FD8B069EF06F06BEF46
:100CD00006F06DEF06F030EF06F0D8903232313288
:100CE00030322F32383E6DEF06F08FEF06F01F0ED8
:100CF00038647DEF06F07FEF06F087EF06F030EF07
:100D000006F0D8902F363036313632363806385025
:100D1000D8A48DEF06F08FEF06F081EF06F0375084
:100D2000D8B495EF06F097EF06F09FEF06F0321E6D
:100D3000311E301E2F6C000E3022312232222FC085
:100D40002FF030C030F031C031F032C032F012003C
:100D5000010E52EC07F0106E1050466E476A52506A
:100D6000D8A4B5EF06F0B7EF06F0FBEF06F00E0ED5
:100D700046184710D8A4BFEF06F0C1EF06F0D0EF39
:100D800006F04F5007E1070E4E5CD8B0CAEF06F0F0
:100D9000CCEF06F0D0EF06F04E4A4F2A09EF07F0ED
:100DA0000D0E46184710D8A4D8EF06F0DAEF06F07B
:100DB000EAEF06F04F5009E1020E4E5CD8A0E3EFD7
:100DC00006F0E5EF06F0EAEF06F04E06D8A04F0673
:100DD00009EF07F00B0E46184710D8A4F2EF06F003
:100DE000F4EF06F009EF07F04F6A080E4E6E010EA1
:100DF000526E09EF07F00E0E46184710D8A403EF05
:100E000007F005EF07F009EF07F04F6A010E4E6E8D
:100E1000526A066A200E056E4E50030DF350600FA5
:100E2000076E030E086EC5EC07F01200076A000E8D
:100E3000066E075009E1040E065CD8A022EF07F009
:100E400024EF07F026EF07F051EF07F001500624DA
:100E5000D96EDA6ADF50836E06C002F0010E036EAF
:100E6000022A35EF07F0D8900336022E33EF07F051
:100E70008050F00B0310806E0B0E056EB80E046EE2
:100E80000406D8A00506042806E10528D8A44BEFDF
:100E900007F04DEF07F040EF07F0064A072A19EF79
:100EA00007F01200016E0104D8A459EF07F05BEFC0
:100EB00007F080EF07F082500F0B0F0AD8B463EFF2
:100EC00007F065EF07F072EF07F04850D8B46BEF0A
:100ED00007F06DEF07F072EF07F0486A82500F0BD2
:100EE0008BEF07F082500F0B0F0AD8A47AEF07F0B0
:100EF0007CEF07F08AEF07F0010E486E8AEF07F0EB
:100F00000150D8A486EF07F088EF07F08AEF07F0CA
:100F10006EEF07F0FF0E1200066A000E056E03501A
:100F20000410D8B496EF07F098EF07F0C0EF07F081
:100F3000010E076EA0EF07F0D89003360436072A9B
:100F400004AEA5EF07F0A7EF07F09CEF07F0D890ED
:100F5000053606360350015C04500258D8A0B3EFA2
:100F600007F0B5EF07F0BAEF07F00350015E045049
:100F7000025A0580D89004320332072EA7EF07F0FB
:100F800005C001F006C002F012000F01436B446B74
:100F900005C001F006C002F09EEC08F008C045FF55
:100FA000460E0C6E0F0E0D6E0F6A000E0E6EE7EF02
:100FB00007F007500E24D96EDA6A0E500C24E16E49
:100FC0000F500D20E26EDFCFE7FF0E4A0F2A0850C8
:100FD000096E0A6A09500E5C0F50800A0B6E0A50A7
:100FE000800A0B58D8A0F7EF07F0F9EF07F0D9EF18
:100FF00007F00F01408712000A500B10D8B403EF1E
:1010000008F005EF08F029EF08F0010E0C6E0DEF67
:1010100008F0D8900A360B360C2A0BAE12EF08F007
:1010200014EF08F009EF08F00A50085C0B5009585B
:10103000D8A01DEF08F01FEF08F023EF08F00A50CA
:10104000085E0B50095AD8900B320A320C2E14EF5E
:1010500008F008C008F009C009F01200F40EF66E9E
:10106000110EF76E000EF86E00EE60F010EE1BF041
:101070000900F5CFEEFFE550E150FAE1260EF66EDD
:10108000120EF76E000EF86E00EE3CF010EE12F04D
:101090000900F5CFEEFFE550E150FAE1536A526ADC
:1010A000516A506A4F6A4E6A0001D8EF08F0066A2A
:1010B000000E056E6FEF08F0010E046EF40E036E65
:1010C0000306D8A00406032806E10428D8A46BEF81
:1010D00008F06DEF08F060EF08F0054A062A0150AD
:1010E000055C02500658D8A078EF08F07AEF08F0B7
:1010F0005CEF08F01200076E07C003F0D8900336CB
:10110000D8900336C250C30B0310C26EC282C2B263
:101110008CEF08F08EEF08F087EF08F0C350C4CFD3
:1011200003F0046A03C004F0036A0310056E045060
:10113000066E05C001F006C002F0120001C003F007
:10114000070E0316050E046ED8900336042EA4EF86
:1011500008F003500F01426F01C003F002C004F019
:10116000D89004320332D89004320332D89004323B
:1011700003320350416F1200939493861F0E6F1633
:101180006F8E800E6E18D8A4C8EF08F0CAEF08F072
:10119000C1EF08F0776AE10E706E1B0E716E030EE0
:1011A000726E0D01D46B1F0E6F166F50606A1200C5
:1011B00008EC09F0A2EC05F0026A640E016E57EC2F
:1011C00008F0A8EC06F0026A640E016E57EC08F015
:1011D000DAEF08F0FEEF17F0C08EC09AC088C09614
:1011E000C090C082C094C292C19AC198C46AC36AB6
:1011F000C28012004F4E00474E0047310047320078
:0F1200004733004734004735004752005F430033
:101210009250F00B926E956A1CEC09F0ECEC08F021
:10122000BCEC08F01200E721CB6B2D6EEE23EF6FC4
:101230000F000101E7E7E7E794500F09946E1200F1
:042FFC002EEF08F0BC
:020000040020DA
:08000000FFFFFFFFFFFFFFFF00
:020000040030CA
:0E000000FF071F1FFF8285FF0FC00FE00F409C
:00000001FF
