:04000000FEEF17F008
:1006000000001950800B226E19501924286E18AE64
:100610000CEF03F00EEF03F00FEF03F028802850EB
:10062000D8B415EF03F017EF03F02AEF03F02828F2
:10063000D8A41DEF03F01FEF03F027EF03F0000E27
:10064000166E000E176E000E186E000E196E188EC4
:1006500032EF03F0000E166E000E176E000E186ECD
:10066000000E196E1D50800B221A1D501D24276E7E
:100670001CAE3DEF03F03FEF03F040EF03F02780A7
:100680002750D8B446EF03F048EF03F05BEF03F0D8
:100690002728D8A44EEF03F050EF03F058EF03F0F3
:1006A000000E1A6E000E1B6E000E1C6E000E1D6EEC
:1006B0001C8E63EF03F0000E1A6E000E1B6E000E10
:1006C0001C6E000E1D6E2750D8B469EF03F06BEF5F
:1006D00003F073EF03F02850D8A471EF03F073EF29
:1006E00003F07DEF03F0000E166E000E176E000E85
:1006F000186E000E196E13EF05F01C501602F3CFA2
:100700002DF0F4CF2EF02D50236E246A256A266A30
:100710002E50296E2A6A2B6A2C6A1B501702F3CFBF
:100720002DF0F4CF2EF02D502326000E242225226A
:1007300026222E502926000E2A222B222C221A5045
:100740001802F3CF2DF0F4CF2EF02D502326000EFB
:100750002422252226222E502926000E2A222B2250
:100760002C2225C026F024C025F023C024F0236AC3
:100770001A501702F3CF2DF0F4CF2EF02D50232670
:100780002E502422000E2522000E26221B50160277
:10079000F3CF2DF0F4CF2EF02D5023262E5024220F
:1007A000000E2522000E262225C026F024C025F0AA
:1007B00023C024F0236A1A501602F3CF2DF0F4CF91
:1007C0002EF02D5023262E502422000E2522000E1E
:1007D00026221C501702F3CF2DF0F4CF2EF02D500F
:1007E00029262E502A22000E2B22000E2C221B50CE
:1007F0001802F3CF2DF0F4CF2EF02D5029262E50D5
:100800002A22000E2B22000E2C221C501802F3CF9D
:100810002DF0F4CF2EF02D501E6E2E501F6E206A3C
:10082000216A20C021F01FC020F01EC01FF01E6AE8
:100830001E5029261F502A2220502B2221502C22C4
:1008400023C01EF024C01FF025C020F026C021F0D8
:10085000190E30EF04F0D890213220321F321E32B0
:10086000E82E2BEF04F01E5029261F502A2220507C
:100870002B2221502C2225C026F024C025F023C095
:1008800024F0236A275028C01EF01F6A1E26000E7F
:100890001F22820E1E242D6EFF0E1F202E6E66EF6D
:1008A00004F0D89029362A362B362C3626AE5BEF4C
:1008B00004F05DEF04F05EEF04F02980D890233659
:1008C0002436253626362D06D8A02E062BAE6BEF05
:1008D00004F06DEF04F051EF04F0276A26AE73EFD9
:1008E00004F075EF04F099EF04F0FF0E23141E6E70
:1008F000FF0E24141F6EFF0E2514206E7F0E26148B
:10090000216E1E501F1020102110D8B48AEF04F061
:100910008CEF04F090EF04F0010E276E99EF04F0D5
:1009200029A095EF04F097EF04F099EF04F08CEF15
:1009300004F02750D8B49FEF04F0A1EF04F0C5EF06
:1009400004F0010E2926000E2A222B222C222CA094
:10095000ACEF04F0AEEF04F0C5EF04F029C01EF0D8
:100960002AC01FF02BC020F02CC021F021342132EE
:1009700020321F321E321EC029F01FC02AF020C0B4
:100980002BF021C02CF02D4A2E2A2EBED0EF04F0E1
:100990002E5008E12D28D8A0D0EF04F0D2EF04F0BB
:1009A000DCEF04F0000E296E000E2A6E800E2B6E16
:1009B0007F0E2C6E09EF05F02EBEE9EF04F02E50ED
:1009C00006E12D04D8B0E7EF04F0E9EF04F0F4EF0E
:1009D00004F0000E296E000E2A6E000E2B6E000E23
:1009E0002C6E226A09EF05F02DC028F0FF0E2916A3
:1009F000FF0E2A167F0E2B16000E2C1628A003EFD2
:100A000005F005EF05F006EF05F02B8ED8902830A5
:100A10002C6E22502C1229C016F02AC017F02BC0C1
:100A200018F02CC019F01200010EB8EC08F0106E8E
:100A30001050486E496A0E0E48184910D8A423EF8A
:100A400005F025EF05F031EF05F0506A010E4F6E0D
:100A5000819E819C81928190526A010E516E71EF4C
:100A600005F00D0E48184910D8A439EF05F03BEFFA
:100A700005F047EF05F0506A020E4F6E819E819C93
:100A800081928190526A020E516E71EF05F00B0E49
:100A900048184910D8A44FEF05F051EF05F05DEF6D
:100AA00005F0506A030E4F6E819E819C8192819069
:100AB000526A030E516E71EF05F0070E4818491087
:100AC000D8A465EF05F067EF05F071EF05F0506A07
:100AD000040E4F6E819E819C81928190526A000E1D
:100AE000516E4F045010D8A478EF05F07AEF05F05E
:100AF000A2EF05F05350106E5450116E534A542A11
:100B0000115009E10B0E105CD8A089EF05F08BEFB6
:100B100005F033EF06F081A090EF05F093EF05F0BC
:100B2000818094EF05F0819081A299EF05F09CEF10
:100B300005F081829DEF05F08192546A000E536E9C
:100B400033EF06F0020E4F185010D8A4AAEF05F0AC
:100B5000ACEF05F0D1EF05F05350106E5450116E0C
:100B6000534A542A115009E10B0E105CD8A0BBEF78
:100B700005F0BDEF05F033EF06F081ACC2EF05F0F4
:100B8000C5EF05F0818CC6EF05F0819C81AECBEFFF
:100B900005F0CEEF05F0818ECFEF05F0819E9DEF41
:100BA00005F0030E4F185010D8A4D9EF05F0DBEF75
:100BB00005F012EF06F05350106E5450116E534A68
:100BC000542A115009E10B0E105CD8A0EAEF05F091
:100BD000ECEF05F033EF06F081A0F1EF05F0F4EF54
:100BE00005F08180F5EF05F0819081A2FAEF05F024
:100BF000FDEF05F08182FEEF05F0819281AC03EFFD
:100C000006F006EF06F0818C07EF06F0819C81AEBE
:100C10000CEF06F00FEF06F0818E10EF06F0819ECC
:100C20009DEF05F0040E4F185010D8A41AEF06F0EF
:100C30001CEF06F033EF06F05350106E5450116E57
:100C4000534A542A115009E10B0E105CD8A02BEF27
:100C500006F02DEF06F033EF06F0819E819C819225
:100C600081909DEF05F0066A500E056E5150040DFF
:100C7000F350600F076E040E086E2BEC09F01200A3
:100C8000460E1A6EB60E1B6EBB0E1C6E400E1D6E0F
:100C9000040EE1EC09F001C008F002C009F00A6A94
:100CA0000B6A000E1FEC07F008C016F009C017F021
:100CB0000AC018F00BC019F001EC03F016C02FF0B9
:100CC00017C030F018C031F019C032F0F9EC07F05D
:100CD0002FC055F030C056F0030E046EE80E036EC0
:100CE00055C001F056C002F0F2EC08F001C008F067
:100CF00002C009F00B6A0A0E0A6E62EC09F0085095
:100D00003E0FD96EDA6ADF504B6E046A640E036ED2
:100D100055C001F056C002F0F2EC08F001C008F036
:100D200002C009F00B6A0A0E0A6E62EC09F0085064
:100D30003E0FD96EDA6ADF504C6E046A0A0E036EFB
:100D400055C001F056C002F0F2EC08F001C008F006
:100D500002C009F00B6A0A0E0A6E62EC09F0085034
:100D60003E0FD96EDA6ADF504D6E55C008F056C09E
:100D700009F00B6A0A0E0A6E62EC09F008503E0F89
:100D8000D96EDA6ADF504E6E4B0E016E7CEC08F0C5
:100D9000030E046EE80E036E55C001F056C002F05B
:100DA000F2EC08F001C008F002C009F00B6A0A0E6C
:100DB0000A6E62EC09F00850300F396E046A640E56
:100DC000036E55C001F056C002F0F2EC08F001C00D
:100DD00008F002C009F00B6A0A0E0A6E62EC09F014
:100DE0000850300F3A6E046A0A0E036E55C001F0C7
:100DF00056C002F0F2EC08F001C008F002C009F0A1
:100E00000B6A0A0E0A6E62EC09F00850300F3B6E56
:100E100055C008F056C009F00B6A0A0E0A6E62EC63
:100E200009F00850300F3C6E3D6A066A300E056EC0
:100E3000390E076E050E086E2BEC09F01200106ECD
:100E40001050D8B426EF07F028EF07F04AEF07F06C
:100E50000BBE2FEF07F02DEF07F04AEF07F008C0A9
:100E60000CF009C00DF00AC00EF00BC00FF00C1E04
:100E70000D1E0E1E0F1E0C2A000E0D220E220F221A
:100E80000CC012F00DC013F00EC014F00FC015F01E
:100E900052EF07F008C012F009C013F00AC014F0B6
:100EA0000BC015F0085009100A100B10D8A45BEF06
:100EB00007F05DEF07F067EF07F0000E086E000E19
:100EC000096E000E0A6E000E0B6EF8EF07F0960E1C
:100ED000116E71EF07F0112AD890153214321332C7
:100EE0001232000E12140C6E000E13140D6E000E52
:100EF00014140E6EFE0E15140F6E0C500D100E1005
:100F00000F10D8A486EF07F088EF07F06BEF07F01B
:100F100096EF07F0112A010E1226000E132214225A
:100F20001522D8901532143213321232000E1214D8
:100F30000C6E000E13140D6E000E14140E6EFF0EC8
:100F400015140F6E0C500D100E100F10D8A4ABEF2F
:100F500007F0ADEF07F08AEF07F0B5EF07F01106E5
:100F6000D890123613361436153614BEBAEF07F081
:100F7000BCEF07F0C4EF07F0020E1160C2EF07F0FC
:100F8000C4EF07F0AFEF07F011B0C9EF07F0CBEFF8
:100F900007F0CCEF07F0149ED890113211C00CF07E
:100FA0000D6A0E6A0F6A0CC00FF00E6A0D6A0C6AA9
:100FB0000C5012120D5013120E5014120F50151225
:100FC0001050D8B4E6EF07F0E8EF07F0F0EF07F0C5
:100FD0000BBEEFEF07F0EDEF07F0F0EF07F0158E27
:100FE00012C008F013C009F014C00AF015C00BF0CD
:100FF000120031343234386E3850D8A402EF08F081
:1010000004EF08F00EEF08F0000E2F6E000E306EA9
:10101000000E316E000E326E7BEF08F02FC033F001
:1010200030C034F031C035F032C036F0200E1EEF43
:1010300008F0D8903632353234323332E82E19EF98
:1010400008F03350376E318EFF0E2F16FF0E30161C
:10105000FF0E3116000E3216960E385E38BE35EF92
:1010600008F033EF08F04BEF08F03850800A970F84
:10107000D8B03DEF08F03FEF08F041EF08F004EF83
:1010800008F0D8903232313230322F32383E41EFD0
:1010900008F063EF08F01F0E386451EF08F053EFCB
:1010A00008F05BEF08F004EF08F0D8902F363036E8
:1010B0003136323638063850D8A461EF08F063EF85
:1010C00008F055EF08F03750D8B469EF08F06BEF2F
:1010D00008F073EF08F0321E311E301E2F6C000E28
:1010E0003022312232222FC02FF030C030F031C0F8
:1010F00031F032C032F01200076A000E066E07505F
:1011000009E1040E065CD8A088EF08F08AEF08F029
:101110008CEF08F0B7EF08F001500624D96EDA6AB8
:10112000DF50836E06C002F0010E036E022A9BEFB1
:1011300008F0D8900336022E99EF08F08050F00B9B
:101140000310806E130E056E880E046E0406D8A080
:101150000506042806E10528D8A4B1EF08F0B3EF8E
:1011600008F0A6EF08F0064A072A7FEF08F0120001
:10117000016E0104D8A4BFEF08F0C1EF08F0E6EF5C
:1011800008F082500F0B0F0AD8B4C9EF08F0CBEF6C
:1011900008F0D8EF08F04A50D8B4D1EF08F0D3EFF8
:1011A00008F0D8EF08F04A6A82500F0BF1EF08F010
:1011B00082500F0B0F0AD8A4E0EF08F0E2EF08F01E
:1011C000F0EF08F0010E4A6EF0EF08F00150D8A4DD
:1011D000ECEF08F0EEEF08F0F0EF08F0D4EF08F0D5
:1011E000FF0E1200066A000E056E03500410D8B4FC
:1011F000FCEF08F0FEEF08F026EF09F0010E076E95
:1012000006EF09F0D89003360436072A04AE0BEF38
:1012100009F00DEF09F002EF09F0D8900536063617
:101220000350015C04500258D8A019EF09F01BEFDD
:1012300009F020EF09F00350015E0450025A0580C6
:10124000D89004320332072E0DEF09F005C001F0EB
:1012500006C002F012000F01436B446B05C001F0A1
:1012600006C002F004EC0AF008C045FF460E0C6E02
:101270000F0E0D6E0F6A000E0E6E4DEF09F0075047
:101280000E24D96EDA6A0E500C24E16E0F500D2038
:10129000E26EDFCFE7FF0E4A0F2A0850096E0A6A96
:1012A00009500E5C0F50800A0B6E0A50800A0B58D2
:1012B000D8A05DEF09F05FEF09F03FEF09F00F01F3
:1012C000408712000A500B10D8B469EF09F06BEF99
:1012D00009F08FEF09F0010E0C6E73EF09F0D89052
:1012E0000A360B360C2A0BAE78EF09F07AEF09F0CC
:1012F0006FEF09F00A50085C0B500958D8A083EF33
:1013000009F085EF09F089EF09F00A50085E0B50EB
:10131000095AD8900B320A320C2E7AEF09F008C025
:1013200008F009C009F01200EB0EF66E140EF76E0D
:10133000000EF86E00EE60F010EE10F00900F5CF30
:10134000EEFFE550E150FAE1DA0EF66E140EF76E9C
:10135000000EF86E00EE3EF010EE11F00900F5CF31
:10136000EEFFE550E150FAE100EE4FF0080EEE6AB4
:10137000E806FDE100013EEF0AF0066A000E056E88
:10138000D5EF09F0010E046EF40E036E0306D8A02B
:101390000406032806E10428D8A4D1EF09F0D3EF0E
:1013A00009F0C6EF09F0054A062A0150055C025013
:1013B0000658D8A0DEEF09F0E0EF09F0C2EF09F01F
:1013C0001200076E07C003F0D8900336D89003369A
:1013D000C250C30B0310C26EC282C2B2F2EF09F058
:1013E000F4EF09F0EDEF09F0C350C4CF03F0046A45
:1013F00003C004F0036A0310056E0450066E05C0B6
:1014000001F006C002F0120001C003F0070E03163F
:10141000050E046ED8900336042E0AEF0AF003502E
:101420000F01426F01C003F002C004F0D8900432F3
:101430000332D89004320332D8900432033203507E
:10144000416F1200939493861F0E6F166F8E800E5D
:101450006E18D8A42EEF0AF030EF0AF027EF0AF04A
:10146000776AE10E706E1B0E716E030E726E0D01C7
:10147000D46B1F0E6F166F50606A120060EC0AF09A
:1014800040EC06F0026A640E016EBDEC09F014EC4B
:1014900005F0026A640E016EBDEC09F040EF0AF03F
:1014A000FEEF17F0C08EC09AC088C096C090C08270
:1014B000C094C292C19AC198C46AC36AC280120021
:1014C000936A816A9250F00B926E956A22EC0AF050
:1014D00052EC0AF07EEC0AF01200E721CB6B2D6E85
:1014E000EE23EF6F0F0001E7E7E7E74F4646004CBA
:0B14F00053000052530000484C000065
:0814FC0094500F09946E1200D8
:042FFC0094EF09F055
:020000040020DA
:08000000FFFFFFFFFFFFFFFF00
:020000040030CA
:0E000000FF071F1FFF8285FF0FC00FE00F409C
:00000001FF
